:1000000045C0000060C000005EC000005CC0000091
:100010005AC0000058C0000056C0000054C0000084
:1000200052C0000050C000004EC000004CC0000094
:100030004AC0000048C0000046C0000044C00000A4
:1000400042C0000040C000003EC000003CC00000B4
:100050003AC0000038C0000036C0000034C00000C4
:1000600032C0000030C000002EC000002CC00000D4
:100070002AC0000028C0000026C0000024C00000E4
:1000800022C0000020C000001EC0000011241FBEBE
:10009000CFEFD0E1DEBFCDBF11E0A0E0B1E0EAE9F3
:1000A000F3E000E00BBF02C007900D92A031B10752
:1000B000D9F721E0A0E1B1E001C01D92A531B2075E
:1000C000E1F7C2D068C19CCF25B32F6025BB25B313
:1000D00043E050E0481B590B81E090E002C0880FDC
:1000E000991F4A95E2F78095822385BB62BB8FE317
:1000F0009FE10197F1F700C0000008950F931F934F
:10010000CF93DF938C01C0E0D0E0F80161918F01C3
:10011000CE01DADF2196C430D105B9F7DF91CF9156
:100120001F910F910895E0E1F1E06AE070E00CD1D9
:10013000DC01A050BF4F8C91808311821282138208
:10014000CF010895E0E1F1E02AE030E0B901FCD010
:10015000DC01A050BF4F8C918083CB01B901F4D05A
:10016000DC01A050BF4F8C91818312821382CF019A
:100170000895CF93DF93EC01E0E1F1E02AE030E075
:10018000B901E2D0DC01A050BF4F8C918083CB013C
:10019000B901DAD0DC01A050BF4F8C918183CE0130
:1001A00064E670E0D1D0CB01B901CED0DC01A05023
:1001B000BF4F8C9182831382CF01DF91CF9108953D
:1001C000CF93DF939C01E0E1F1E0CAE0D0E0BE0113
:1001D000BBD0DC01A050BF4F8C918083CB01BE010E
:1001E000B3D0DC01A050BF4F8C918183C90164E67C
:1001F00070E0AAD0CB01BE01A7D0DC01A050BF4F58
:100200008C918283C90168EE73E09ED0DB01A0501F
:10021000BF4F8C9183832A30310524F413821182DD
:1002200012820DC0243631052CF4E0E1F1E0128297
:10023000138205C0283E334014F41092130180E16C
:1002400091E0DF91CF910895B89884B38F6084BB1B
:1002500081B38FEF81BBC0E0D0E080E090E0689494
:10026000AA24A6F80F2EF7E0BF2EF02D0F2EF3E0F4
:10027000EF2EF02DFF24F3946894CC24C1F8D12CF8
:10028000812C912C02C08C2D9D2DA2BAB09955C005
:100290000196B09BFECF8130910519F00297A9F12C
:1002A00046C0CA30D1050CF4B5BACE013CDF26DF1A
:1002B0008FE39CE90197F1F700C00000E5BACE0199
:1002C000019640DF1BDF8FE39CE90197F1F700C047
:1002D0000000F5BACE0102964CDF10DF8FE39CE9F7
:1002E0000197F1F700C0000015BACE0103962496DD
:1002F00067DF04DF8FE39CE90197F1F700C000009E
:10030000B099CFCFB09BFECFBECFCA30D1051CF481
:10031000CE0109DFF3DECE0115DFF0DECE0129DFED
:10032000EDDECE014DDFEADE8C2D9D2DAECFA2BAE3
:10033000C0E0D0E0882D992DA8CF8130910509F437
:10034000B0CF029711F3F3CF97FB072E16F400946A
:1003500006D077FD08D00BD007FC05D03EF4909571
:1003600081959F4F0895709561957F4F0895AA1BC1
:10037000BB1B51E107C0AA1FBB1FA617B70710F090
:10038000A61BB70B881F991F5A95A9F780959095C2
:0A039000BC01CD010895F894FFCFE1
:10039A003F065B4F666D7D277F67777C395E797193
:00000001FF
