:1000000045C0000060C000005EC000005CC0000091
:100010005AC0000033C4000075C5000094C500003C
:1000200052C0000050C000004EC000004CC0000094
:100030004AC0000048C00000F0C3000044C00000F7
:1000400042C0000040C000003EC000003CC00000B4
:100050003AC0000038C0000036C0000034C00000C4
:1000600032C0000030C000002EC000002CC00000D4
:100070002AC0000028C0000026C0000024C00000E4
:1000800022C0000020C000001EC0000011241FBEBE
:10009000CFEFD0E1DEBFCDBF11E0A0E0B1E0E2E103
:1000A000FCE000E00BBF02C007900D92A031B10749
:1000B000D9F721E0A0E1B1E001C01D92A332B2075F
:1000C000E1F7C0D2A4C59CCF9093050180930401B1
:1000D00070930301609302010895E0910401F0918F
:1000E000050120812F602083E0910401F09105013A
:1000F00023E030E0281B390B81E090E002C0880F3C
:10010000991F2A95E2F78095908189238083E09159
:100110000201F091030160838FE39FE10197F1F702
:1001200000C0000008950F931F93CF93DF938C01BD
:10013000C0E0D0E007C0F801EC0FFD1F6081CE01E8
:10014000CCDF21968091000190910101C817D90759
:1001500094F3DF91CF911F910F91089520911A018F
:1001600030911B01215031092817390729F1E091FD
:100170000401F091050120812F602083E0910401AA
:10018000F091050123E030E0281B390B81E090E07D
:1001900002C0880F991F2A95E2F7809590818923E4
:1001A0008083E0910201F091030160838FE39FE17E
:1001B0000197F1F700C0000008950F931F93CF93AC
:1001C000DF938C01C0E0D0E007C0F801EC0FFD1F09
:1001D0006081CE0182DF2196C430D105B4F3DF9176
:1001E000CF911F910F9108950F931F93CF93DF939A
:1001F0008C01C0E0D0E007C0F801EC0FFD1F60816A
:10020000CE01ACDF2196C430D105B4F3DF91CF919C
:100210001F910F9108954F925F926F927F928F92EC
:100220009F92AF92BF92CF92DF92EF92FF92CF93C5
:10023000DF93CDB7DEB728970FB6F894DEBF0FBEB9
:10024000CDBF6B017C010F2EFAE08F2E912CA12CDB
:10025000B12CF02DA5019401B8D469837A838B83E6
:100260009C830F2EF6E04F2E512C612C712CF02D1B
:10027000CA01B901A3019201A8D46D837E838F8343
:100280009887C701B6012CE330E040E050E09DD4F0
:10029000CA01B901A501940198D44B015C01C701C1
:1002A000B60124E630E040E050E08FD4CA01B90145
:1002B000A30192018AD4E981FA81EA5FFE4F20818D
:1002C000EEE1F1E02083AD81BE81AA5FBE4F2C91AB
:1002D0002183D401AA5FBE4F2C912283DB01AA5F48
:1002E000BE4F8C9183838AE0C816D104E104F104E7
:1002F00020F413821182128214C08CE3C816D10438
:10030000E104F10428F4EEE1F1E01282138209C065
:1003100088E5C81682E0D806E104F10410F41092D2
:10032000210189E5C81682E0D806E104F10478F4D9
:100330008DE3C816D104E104F10460F48BE0C81623
:10034000D104E104F10448F082E090E008C084E0C8
:1003500090E005C083E090E002C081E090E09093DF
:100360000101809300018EE191E0DDDE8EE191E0FC
:1003700028960FB6F894DEBF0FBECDBFDF91CF91A8
:10038000FF90EF90DF90CF90BF90AF909F908F90B5
:100390007F906F905F904F9008954F925F926F9211
:1003A0007F928F929F92AF92BF92CF92DF92EF9205
:1003B000FF92CF93DF93CDB7DEB728970FB6F894AF
:1003C000DEBF0FBECDBF2B013C010F2EFAE0CF2EBA
:1003D000D12CE12CF12CF02DA7019601F6D36983E5
:1003E0007A838B839C830F2EF6E08F2E912CA12C89
:1003F000B12CF02DCA01B901A5019401E6D36D839A
:100400007E838F839887C301B2012CE330E040E004
:1004100050E0DBD3CA01B901A7019601D6D36B0125
:100420007C01C301B20128E532E040E050E0CDD3C9
:10043000CA01B901A5019401C8D3E981FA81EA5F33
:10044000FE4F2081EEE1F1E02083AD81BE81AA5F05
:10045000BE4F2C912183D601AA5FBE4F2C912283DF
:10046000DB01AA5FBE4F8C918383CF01A6DE8EE1B4
:1004700091E028960FB6F894DEBF0FBECDBFDF9196
:10048000CF91FF90EF90DF90CF90BF90AF909F9073
:100490008F907F906F905F904F9008954F925F92F2
:1004A0006F927F928F929F92AF92BF92CF92DF9284
:1004B000EF92FF92CF93DF93CDB7DEB728970FB6B9
:1004C000F894DEBF0FBECDBF2B013C010F2EFAE02A
:1004D000CF2ED12CE12CF12CF02DA701960175D354
:1004E00069837A838B839C830F2EF6E08F2E912C69
:1004F000A12CB12CF02DCA01B901A501940165D33D
:100500006D837E838F839887C301B2012CE330E033
:1005100040E050E05AD3CA01B901A701960155D372
:100520006B017C01C301B20128E532E040E050E0FC
:100530004CD3CA01B901A501940147D3E981FA81DD
:10054000EA5FFE4F2081EEE1F1E02083AD81BE81C4
:10055000AA5FBE4F2C912183D601AA5FBE4F2C917A
:100560002283DB01AA5FBE4F8C918383CF013CDEE7
:100570008EE191E028960FB6F894DEBF0FBECDBF96
:10058000DF91CF91FF90EF90DF90CF90BF90AF9031
:100590009F908F907F906F905F904F9008950F93F2
:1005A0001F93CF93DF9300E010E043C081E090E021
:1005B000002E02C0880F991F0A94E2F79BB3982B74
:1005C0009BBB2FEF30E742E0215030404040E1F745
:1005D00000C000009BB3809589238BBB8FEF90E711
:1005E00022E0815090402040E1F700C00000C0E0D0
:1005F000D0E00AC060911001709111018091120148
:1006000090911301CADE2196CA30D1059CF3C0E057
:10061000D0E00AC060911001709111018091120127
:10062000909113013BDF2196CA30D1059CF30F5FF7
:100630001F4F033011050CF4B9CFDF91CF911F91FB
:100640000F91089562E370E085E390E03DDD87E07F
:1006500083B98FE08ABB84BB8FEF81BB12B880E780
:1006600089BF8AE28ABF87B7846087BF84E08EBD76
:100670008FB780688FBF78948FE382BB809114011D
:1006800090911501A0911601B091170140911001B0
:100690005091110160911201709113018417950717
:1006A000A607B70771F4892B8A2B8B2B21F409C07D
:1006B00080E090E074DF8091180190911901892BFE
:1006C000B9F380911A0190911B01892B09F52FC074
:1006D00060911001709111018091120190911301AC
:1006E0005CDE219602C0C0E0D0E0C233D10584F3C5
:1006F000C0E0D0E00AC060911001709111018091BA
:10070000120190911301CADE2196C233D1059CF3E8
:1007100080911A0190911B01181619060CF0ACCFAC
:1007200080911A0190911B010597ECF2A5CF809161
:100730001C0190911D01892B09F43CC080911C0182
:1007400090911D018230910511F18330910529F1BD
:10075000019759F50BC060911401709115018091BA
:1007600016019091170157DD219602C0C0E0D0E03C
:10077000C233D10584F380CF6091140170911501CB
:10078000809116019091170146DD219602C0C0E0CC
:10079000D0E0C233D10584F36FCF98E088E10FB683
:1007A000F894A89581BD0FBE91BD10921D011092C5
:1007B0001C0162CF8091180190911901892B09F4D5
:1007C0005BCF8091180190911901019789F41092E3
:1007D0001401109215011092160110921701109237
:1007E000100110921101109212011092130144CFC6
:1007F0001092190110921801109214011092150113
:10080000109216011092170110921001109211010E
:1008100010921201109213012FCF1F920F920FB658
:100820000F9211248F939F93AF93BF9380911C01DC
:1008300090911D010197C9F480911A0190911B01BB
:10084000892B99F48091140190911501A0911601C2
:10085000B09117010196A11DB11D809314019093D1
:100860001501A0931601B0931701BF91AF919F910D
:100870008F910F900FBE0F901F9018951F920F929F
:100880000FB60F9211240BB60F92CF92DF92EF9218
:10089000FF922F933F934F935F936F937F938F9329
:1008A0009F93AF93BF93EF93FF9380911A01909121
:1008B0001B01019779F5C0901001D0901101E090D3
:1008C0001201F09013018FEFC81AD80AE80AF80A4B
:1008D000C0921001D0921101E0921201F092130126
:1008E000C701B6012AE030E040E050E06ED1672B4E
:1008F000682B692B09F0EFC08AE0C81AD108E1081B
:10090000F108C0921001D0921101E0921201F09210
:100910001301E1C080911A0190911B010297B1F57A
:10092000C0901001D0901101E0901201F0901301DD
:100930008AE0C80ED11CE11CF11CC0921001D092BB
:100940001101E0921201F0921301C701B6012AE0F1
:1009500030E040E050E039D1CA01B90126E030E092
:1009600040E050E032D1672B682B692B09F0B3C00F
:100970008CE3C81AD108E108F108C0921001D092A6
:100980001101E0921201F0921301A5C080911A01A9
:1009900090911B01039709F03DC0C0901001D090C9
:1009A0001101E0901201F09013018CE3C80ED11CEC
:1009B000E11CF11CC0921001D0921101E0921201D1
:1009C000F09213016091140170911501809116014C
:1009D000909117012CE330E040E050E0F6D0CA01DE
:1009E000B9012AE030E040E050E0EFD0672B682BFF
:1009F000692B09F070C088E5C81A82E0D80AE108BE
:100A0000F108C0921001D0921101E0921201F0920F
:100A1000130161C080911A0190911B010497B9F5EF
:100A2000C0901001D0901101E0901201F0901301DC
:100A300088E5C80E82E0D81EE11CF11CC0921001AE
:100A4000D0921101E0921201F0921301C701B60198
:100A500028E532E040E050E0B8D0CA01B9012AE010
:100A600030E040E050E0B1D0672B682B692B99F55E
:100A700080E7C81A87E1D80AE108F108C09210019E
:100A8000D0921101E0921201F092130124C08091E2
:100A90001A0190911B01892B59F480911C019091AE
:100AA0001D0105972CF010921D0110921C0113C01E
:100AB00080911C0190911D01019690931D018093DE
:100AC0001C0180911C0190911D010A9724F0109245
:100AD0001D0110921C01FF91EF91BF91AF919F9169
:100AE0008F917F916F915F914F913F912F91FF90E7
:100AF000EF90DF90CF900F900BBE0F900FBE0F9036
:100B00001F9018951F920F920FB60F9211248F937A
:100B10009F9380911A0190911B01019690931B0164
:100B200080931A0180911A0190911B01059724F07E
:100B300010921B0110921A019F918F910F900FBE7E
:100B40000F901F9018951F920F920FB60F921124BD
:100B50008F939F9380911801909119010196909322
:100B600019018093180110921B0110921A01109222
:100B70001D0110921C0198E088E10FB6F894A89529
:100B800081BD0FBE91BDA89580911801909119016A
:100B90000297A4F0109219011092180110921401FA
:100BA0001092150110921601109217011092100167
:100BB0001092110110921201109213019F918F91C6
:100BC0000F900FBE0F901F901895A1E21A2EAA1B2E
:100BD000BB1BFD010DC0AA1FBB1FEE1FFF1FA217ED
:100BE000B307E407F50720F0A21BB30BE40BF50BEA
:100BF000661F771F881F991F1A9469F76095709573
:100C0000809590959B01AC01BD01CF010895F894AA
:020C1000FFCF14
:100C12000400320035003F065B4F666D7D277F671B
:00000001FF
